{
  "contractName": "SupplyChain",
  "abi": [
    {
      "inputs": [],
      "payable": false,
      "stateMutability": "nonpayable",
      "type": "constructor"
    },
    {
      "payable": true,
      "stateMutability": "payable",
      "type": "fallback"
    },
    {
      "anonymous": false,
      "inputs": [
        {
          "indexed": true,
          "name": "nodeId",
          "type": "uint256"
        },
        {
          "indexed": true,
          "name": "owner",
          "type": "address"
        },
        {
          "indexed": false,
          "name": "timestamp",
          "type": "uint256"
        }
      ],
      "name": "SupplyNodeAdded",
      "type": "event"
    },
    {
      "anonymous": false,
      "inputs": [
        {
          "indexed": true,
          "name": "nodeId",
          "type": "uint256"
        },
        {
          "indexed": true,
          "name": "owner",
          "type": "address"
        },
        {
          "indexed": false,
          "name": "timestamp",
          "type": "uint256"
        }
      ],
      "name": "SupplyNodeRemoved",
      "type": "event"
    },
    {
      "anonymous": false,
      "inputs": [
        {
          "indexed": true,
          "name": "nodeId",
          "type": "uint256"
        },
        {
          "indexed": true,
          "name": "operator",
          "type": "address"
        },
        {
          "indexed": false,
          "name": "approved",
          "type": "bool"
        },
        {
          "indexed": false,
          "name": "timestamp",
          "type": "uint256"
        }
      ],
      "name": "NodeOpApproval",
      "type": "event"
    },
    {
      "anonymous": false,
      "inputs": [
        {
          "indexed": true,
          "name": "itemId",
          "type": "uint256"
        },
        {
          "indexed": true,
          "name": "nodeId",
          "type": "uint256"
        },
        {
          "indexed": false,
          "name": "timestamp",
          "type": "uint256"
        }
      ],
      "name": "SupplyItemAdded",
      "type": "event"
    },
    {
      "anonymous": false,
      "inputs": [
        {
          "indexed": true,
          "name": "itemId",
          "type": "uint256"
        },
        {
          "indexed": true,
          "name": "nodeId",
          "type": "uint256"
        },
        {
          "indexed": false,
          "name": "timestamp",
          "type": "uint256"
        }
      ],
      "name": "SupplyItemRemoved",
      "type": "event"
    },
    {
      "anonymous": false,
      "inputs": [
        {
          "indexed": true,
          "name": "stepId",
          "type": "uint256"
        },
        {
          "indexed": true,
          "name": "nodeId",
          "type": "uint256"
        },
        {
          "indexed": true,
          "name": "itemId",
          "type": "uint256"
        },
        {
          "indexed": false,
          "name": "timestamp",
          "type": "uint256"
        }
      ],
      "name": "SupplyStepAdded",
      "type": "event"
    },
    {
      "anonymous": false,
      "inputs": [
        {
          "indexed": true,
          "name": "stepId",
          "type": "uint256"
        },
        {
          "indexed": true,
          "name": "nodeId",
          "type": "uint256"
        },
        {
          "indexed": true,
          "name": "itemId",
          "type": "uint256"
        },
        {
          "indexed": false,
          "name": "timestamp",
          "type": "uint256"
        }
      ],
      "name": "SupplyStepRemoved",
      "type": "event"
    },
    {
      "anonymous": false,
      "inputs": [
        {
          "indexed": true,
          "name": "stepId",
          "type": "uint256"
        },
        {
          "indexed": true,
          "name": "owner",
          "type": "address"
        },
        {
          "indexed": true,
          "name": "nodeId",
          "type": "uint256"
        },
        {
          "indexed": false,
          "name": "timestamp",
          "type": "uint256"
        }
      ],
      "name": "SupplyStepRequest",
      "type": "event"
    },
    {
      "anonymous": false,
      "inputs": [
        {
          "indexed": true,
          "name": "stepId",
          "type": "uint256"
        },
        {
          "indexed": true,
          "name": "owner",
          "type": "address"
        },
        {
          "indexed": true,
          "name": "nodeId",
          "type": "uint256"
        },
        {
          "indexed": false,
          "name": "approved",
          "type": "bool"
        },
        {
          "indexed": false,
          "name": "timestamp",
          "type": "uint256"
        }
      ],
      "name": "SupplyNodeApproval",
      "type": "event"
    },
    {
      "constant": false,
      "inputs": [
        {
          "name": "fileDigest",
          "type": "bytes32"
        },
        {
          "name": "fileMeta",
          "type": "uint8"
        },
        {
          "name": "fileSize",
          "type": "uint8"
        }
      ],
      "name": "addSupplyNode",
      "outputs": [
        {
          "name": "",
          "type": "uint256"
        }
      ],
      "payable": false,
      "stateMutability": "nonpayable",
      "type": "function"
    },
    {
      "constant": false,
      "inputs": [
        {
          "name": "nodeId",
          "type": "uint256"
        }
      ],
      "name": "removeSupplyNode",
      "outputs": [
        {
          "name": "",
          "type": "bool"
        }
      ],
      "payable": false,
      "stateMutability": "nonpayable",
      "type": "function"
    },
    {
      "constant": false,
      "inputs": [
        {
          "name": "nodeId",
          "type": "uint256"
        },
        {
          "name": "operator",
          "type": "address"
        },
        {
          "name": "approved",
          "type": "bool"
        }
      ],
      "name": "approveNodeOp",
      "outputs": [
        {
          "name": "",
          "type": "bool"
        }
      ],
      "payable": false,
      "stateMutability": "nonpayable",
      "type": "function"
    },
    {
      "constant": false,
      "inputs": [
        {
          "name": "nodeId",
          "type": "uint256"
        },
        {
          "name": "fileDigest",
          "type": "bytes32"
        },
        {
          "name": "fileMeta",
          "type": "uint8"
        },
        {
          "name": "fileSize",
          "type": "uint8"
        }
      ],
      "name": "addSupplyItem",
      "outputs": [
        {
          "name": "",
          "type": "uint256"
        }
      ],
      "payable": false,
      "stateMutability": "nonpayable",
      "type": "function"
    },
    {
      "constant": false,
      "inputs": [
        {
          "name": "itemId",
          "type": "uint256"
        }
      ],
      "name": "removeSupplyItem",
      "outputs": [
        {
          "name": "",
          "type": "bool"
        }
      ],
      "payable": false,
      "stateMutability": "nonpayable",
      "type": "function"
    },
    {
      "constant": false,
      "inputs": [
        {
          "name": "nodeId",
          "type": "uint256"
        },
        {
          "name": "itemId",
          "type": "uint256"
        },
        {
          "name": "precedents",
          "type": "uint256[]"
        },
        {
          "name": "fileDigest",
          "type": "bytes32"
        },
        {
          "name": "fileMeta",
          "type": "uint8"
        },
        {
          "name": "fileSize",
          "type": "uint8"
        }
      ],
      "name": "addSupplyStep",
      "outputs": [
        {
          "name": "",
          "type": "uint256"
        }
      ],
      "payable": false,
      "stateMutability": "nonpayable",
      "type": "function"
    },
    {
      "constant": false,
      "inputs": [
        {
          "name": "stepId",
          "type": "uint256"
        }
      ],
      "name": "removeSupplyStep",
      "outputs": [
        {
          "name": "",
          "type": "bool"
        }
      ],
      "payable": false,
      "stateMutability": "nonpayable",
      "type": "function"
    },
    {
      "constant": false,
      "inputs": [
        {
          "name": "stepId",
          "type": "uint256"
        },
        {
          "name": "nodeId",
          "type": "uint256"
        }
      ],
      "name": "requestSupplyStep",
      "outputs": [
        {
          "name": "",
          "type": "bool"
        }
      ],
      "payable": false,
      "stateMutability": "nonpayable",
      "type": "function"
    },
    {
      "constant": false,
      "inputs": [
        {
          "name": "stepId",
          "type": "uint256"
        },
        {
          "name": "nodeId",
          "type": "uint256"
        },
        {
          "name": "approved",
          "type": "bool"
        }
      ],
      "name": "approveSupplyNode",
      "outputs": [
        {
          "name": "",
          "type": "bool"
        }
      ],
      "payable": false,
      "stateMutability": "nonpayable",
      "type": "function"
    },
    {
      "constant": true,
      "inputs": [
        {
          "name": "nodeId",
          "type": "uint256"
        }
      ],
      "name": "supplyNode",
      "outputs": [
        {
          "name": "owner",
          "type": "address"
        },
        {
          "name": "fileDigest",
          "type": "bytes32"
        },
        {
          "name": "fileMeta",
          "type": "uint8"
        },
        {
          "name": "fileSize",
          "type": "uint8"
        }
      ],
      "payable": false,
      "stateMutability": "view",
      "type": "function"
    },
    {
      "constant": true,
      "inputs": [
        {
          "name": "itemId",
          "type": "uint256"
        }
      ],
      "name": "supplyItem",
      "outputs": [
        {
          "name": "nodeId",
          "type": "uint256"
        },
        {
          "name": "lastStep",
          "type": "uint256"
        },
        {
          "name": "fileDigest",
          "type": "bytes32"
        },
        {
          "name": "fileMeta",
          "type": "uint8"
        },
        {
          "name": "fileSize",
          "type": "uint8"
        }
      ],
      "payable": false,
      "stateMutability": "view",
      "type": "function"
    },
    {
      "constant": true,
      "inputs": [
        {
          "name": "stepId",
          "type": "uint256"
        }
      ],
      "name": "supplyStep",
      "outputs": [
        {
          "name": "nodeId",
          "type": "uint256"
        },
        {
          "name": "itemId",
          "type": "uint256"
        },
        {
          "name": "precedents",
          "type": "uint256[]"
        },
        {
          "name": "fileDigest",
          "type": "bytes32"
        },
        {
          "name": "fileMeta",
          "type": "uint8"
        },
        {
          "name": "fileSize",
          "type": "uint8"
        }
      ],
      "payable": false,
      "stateMutability": "view",
      "type": "function"
    },
    {
      "constant": true,
      "inputs": [
        {
          "name": "nodeId",
          "type": "uint256"
        },
        {
          "name": "itemId",
          "type": "uint256"
        },
        {
          "name": "precedents",
          "type": "uint256[]"
        }
      ],
      "name": "validateSupplyStep",
      "outputs": [
        {
          "name": "",
          "type": "bool"
        }
      ],
      "payable": false,
      "stateMutability": "view",
      "type": "function"
    },
    {
      "constant": true,
      "inputs": [
        {
          "name": "nodeId",
          "type": "uint256"
        },
        {
          "name": "operator",
          "type": "address"
        }
      ],
      "name": "isNodeOp",
      "outputs": [
        {
          "name": "",
          "type": "bool"
        }
      ],
      "payable": false,
      "stateMutability": "view",
      "type": "function"
    },
    {
      "constant": true,
      "inputs": [
        {
          "name": "itemId",
          "type": "uint256"
        }
      ],
      "name": "itemLastStep",
      "outputs": [
        {
          "name": "stepId",
          "type": "uint256"
        }
      ],
      "payable": false,
      "stateMutability": "view",
      "type": "function"
    },
    {
      "constant": true,
      "inputs": [
        {
          "name": "stepId",
          "type": "uint256"
        }
      ],
      "name": "stepPrecedents",
      "outputs": [
        {
          "name": "precedents",
          "type": "uint256[]"
        }
      ],
      "payable": false,
      "stateMutability": "view",
      "type": "function"
    },
    {
      "constant": true,
      "inputs": [
        {
          "name": "stepId",
          "type": "uint256"
        },
        {
          "name": "nodeId",
          "type": "uint256"
        }
      ],
      "name": "stepNodeApproved",
      "outputs": [
        {
          "name": "approved",
          "type": "bool"
        }
      ],
      "payable": false,
      "stateMutability": "view",
      "type": "function"
    },
    {
      "constant": false,
      "inputs": [],
      "name": "destroy",
      "outputs": [],
      "payable": false,
      "stateMutability": "nonpayable",
      "type": "function"
    }
  ],
  "bytecode": "0x608060405234801561001057600080fd5b50600080546001600160a01b03191633178155600381905560078190556001556123468061003f6000396000f3fe6080604052600436106101295760003560e01c80638bd68d8c116100a5578063ccb1526111610074578063eb9062d311610059578063eb9062d31461069c578063ed89ba6814610706578063fd3442de1461073057610129565b8063ccb1526114610631578063e21bea311461065b57610129565b80638bd68d8c146104ce57806399a2bc59146104fe5780639c12409d146105ab578063cb74391e146105f957610129565b80633da4b860116100fc57806373903d82116100e157806373903d82146104215780637c62a4c31461047c57806383197ef0146104b757610129565b80633da4b8601461037d5780636dca3cde146103a757610129565b806302d69dc8146101585780630d86661d1461023757806316033a811461027b578063369c74f1146102c1575b60405133903480156108fc02916000818181858888f19350505050158015610155573d6000803e3d6000fd5b50005b34801561016457600080fd5b50610225600480360360c081101561017b57600080fd5b8135916020810135918101906060810160408201356401000000008111156101a257600080fd5b8201836020820111156101b457600080fd5b803590602001918460208302840111640100000000831117156101d657600080fd5b91908080602002602001604051908101604052809392919081815260200183836020028082843760009201919091525092955050823593505060ff60208301358116926040013516905061075a565b60408051918252519081900360200190f35b34801561024357600080fd5b506102676004803603604081101561025a57600080fd5b5080359060200135610a44565b604080519115158252519081900360200190f35b34801561028757600080fd5b506102676004803603604081101561029e57600080fd5b508035906020013573ffffffffffffffffffffffffffffffffffffffff16610b91565b3480156102cd57600080fd5b50610267600480360360608110156102e457600080fd5b81359160208101359181019060608101604082013564010000000081111561030b57600080fd5b82018360208201111561031d57600080fd5b8035906020019184602083028401116401000000008311171561033f57600080fd5b919080806020026020016040519081016040528093929190818152602001838360200280828437600092019190915250929550610bfe945050505050565b34801561038957600080fd5b50610267600480360360208110156103a057600080fd5b5035610e6c565b3480156103b357600080fd5b506103d1600480360360208110156103ca57600080fd5b50356111d0565b60408051602080825283518183015283519192839290830191858101910280838360005b8381101561040d5781810151838201526020016103f5565b505050509050019250505060405180910390f35b34801561042d57600080fd5b5061044b6004803603602081101561044457600080fd5b5035611235565b6040805195865260208601949094528484019290925260ff9081166060850152166080830152519081900360a00190f35b34801561048857600080fd5b506102256004803603606081101561049f57600080fd5b5080359060ff60208201358116916040013516611273565b3480156104c357600080fd5b506104cc6114d6565b005b3480156104da57600080fd5b50610267600480360360408110156104f157600080fd5b5080359060200135611515565b34801561050a57600080fd5b506105286004803603602081101561052157600080fd5b5035611551565b60405180878152602001868152602001806020018581526020018460ff1660ff1681526020018360ff1660ff168152602001828103825286818151815260200191508051906020019060200280838360005b8381101561059257818101518382015260200161057a565b5050505090500197505050505050505060405180910390f35b3480156105b757600080fd5b50610267600480360360608110156105ce57600080fd5b5080359073ffffffffffffffffffffffffffffffffffffffff602082013516906040013515156115f8565b34801561060557600080fd5b506102676004803603606081101561061c57600080fd5b508035906020810135906040013515156117d5565b34801561063d57600080fd5b506102676004803603602081101561065457600080fd5b50356119e0565b34801561066757600080fd5b506102256004803603608081101561067e57600080fd5b5080359060208101359060ff60408201358116916060013516611c55565b3480156106a857600080fd5b506106c6600480360360208110156106bf57600080fd5b5035611f6c565b6040805173ffffffffffffffffffffffffffffffffffffffff9095168552602085019390935260ff91821684840152166060830152519081900360800190f35b34801561071257600080fd5b506102676004803603602081101561072957600080fd5b5035611fb4565b34801561073c57600080fd5b506102256004803603602081101561075357600080fd5b5035612171565b6000836107ae576040805162461bcd60e51b815260206004820152601460248201527f496e76616c69642066696c65206469676573742e000000000000000000000000604482015290519081900360640190fd5b60ff8316610803576040805162461bcd60e51b815260206004820152601260248201527f496e76616c69642066696c65206d6574612e0000000000000000000000000000604482015290519081900360640190fd5b60ff8216610858576040805162461bcd60e51b815260206004820152601260248201527f496e76616c69642066696c652073697a652e0000000000000000000000000000604482015290519081900360640190fd5b610863878787610bfe565b6108b4576040805162461bcd60e51b815260206004820152601460248201527f496e76616c696420537570706c7920537465702e000000000000000000000000604482015290519081900360640190fd5b6108bc612183565b60405180606001604052808681526020018560ff1681526020018460ff1681525090506108e76121a3565b506040805160a08101825289815260208082018a8152828401858152606084018b8152600060808601819052600780546001908101918290559082526008865290879020865181559351908401559051805160028401558084015160038401805492909701517fffffffffffffffffffffffffffffffffffffffffffffffffffffffffffffff0090921660ff918216177fffffffffffffffffffffffffffffffffffffffffffffffffffffffffffff00ff16610100919092160217909455925180519293849390926109c09260048501929101906121d8565b50608091909101516005909101556007805460008a8152600660209081526040808320939093558c82526002815290829020600301805460010190559154815142815291518b938d937fe6dd0b649c5ecb8b181bf7cc74876a0c6b25cd3a81af3dd2c1da6e517672b2c7929081900390910190a45050600754979650505050505050565b600082815260086020526040812054610aa4576040805162461bcd60e51b815260206004820152600d60248201527f496e76616c696420737465702e00000000000000000000000000000000000000604482015290519081900360640190fd5b60008281526002602052604090205473ffffffffffffffffffffffffffffffffffffffff163314610b1c576040805162461bcd60e51b815260206004820152601060248201527f4e6f6465206f776e6572206f6e6c792e00000000000000000000000000000000604482015290519081900360640190fd5b600083815260086020908152604080832054835260028252918290205482514281529251859373ffffffffffffffffffffffffffffffffffffffff9092169287927ff5ba01e9e9742b6d6fb1c3e7cde2d9af70509ed8b2bbf9a424325535bf6bbf8d929081900390910190a450600192915050565b60008281526002602052604081205473ffffffffffffffffffffffffffffffffffffffff163314610bc157600080fd5b50600082815260026020908152604080832073ffffffffffffffffffffffffffffffffffffffff8516845260040190915290205460ff1692915050565b600083815260026020819052604082200154610100900460ff16610c2457506000610e65565b60008481526002602052604090205473ffffffffffffffffffffffffffffffffffffffff163314801590610c755750600084815260026020908152604080832033845260040190915290205460ff16155b15610c8257506000610e65565b600083815260046020526040902060010154610100900460ff16610ca857506000610e65565b815160009015610e255760005b83518160ff161015610e235760086000858360ff1681518110610cd457fe5b602002602001015181526020019081526020016000206001015460001480610d7057508560086000868460ff1681518110610d0b57fe5b60200260200101518152602001908152602001600020600001541480610d6e575060086000858360ff1681518110610d3f57fe5b6020908102919091018101518252818101929092526040908101600090812089825260060190925290205460ff165b155b80610dd05750838160ff1681518110610d8557fe5b60200260200101516006600060086000888660ff1681518110610da457fe5b602002602001015181526020019081526020016000206001015481526020019081526020016000205414155b15610de057600092505050610e65565b8460086000868460ff1681518110610df457fe5b60200260200101518152602001908152602001600020600101541415610e1b576001909101905b600101610cb5565b505b60018160ff161180610e50575060ff8116158015610e50575060008481526006602052604090205415155b15610e5f576000915050610e65565b60019150505b9392505050565b60008181526008602052604081208054600182015481610ed3576040805162461bcd60e51b815260206004820152600d60248201527f496e76616c696420737465702e00000000000000000000000000000000000000604482015290519081900360640190fd5b60008281526002602052604090205473ffffffffffffffffffffffffffffffffffffffff16331480610f215750600082815260026020908152604080832033845260040190915290205460ff165b610f72576040805162461bcd60e51b815260206004820152601960248201527f496e76616c6964206f776e6572202f206f70657261746f722e00000000000000604482015290519081900360640190fd5b6000818152600660205260409020548514610fd4576040805162461bcd60e51b815260206004820181905260248201527f4f6e6c79206974656d2773206c61737420737465702072656d6f7661626c652e604482015290519081900360640190fd5b6005830154156110155760405162461bcd60e51b81526004018080602001828103825260298152602001806122e96029913960400191505060405180910390fd5b6004830154156110cb5760005b600484015460ff821610156110a6578160086000866004018460ff168154811061104857fe5b9060005260206000200154815260200190815260200160002060010154141561109e57836004018160ff168154811061107d57fe5b600091825260208083209091015484835260069091526040909120556110a6565b600101611022565b600484015460ff821614156110c5576000828152600660205260408120555b506110db565b6000818152600660205260408120555b6000828152600260205260409020600301541561112a57600082815260026020526040902060030180547fffffffffffffffffffffffffffffffffffffffffffffffffffffffffffffffff0190555b6000858152600860205260408120600281018290556003810180547fffffffffffffffffffffffffffffffffffffffffffffffffffffffffffff000016905581815560018101829055906111816004830182612223565b600582016000905550508082867fe3edcf920d7064f74f0b6adfae958fec061da6f4b773fd148990fe7a28e4842e426040518082815260200191505060405180910390a4506001949350505050565b60008181526008602090815260409182902060040180548351818402810184019094528084526060939283018282801561122957602002820191906000526020600020905b815481526020019060010190808311611215575b50505050509050919050565b600090815260056020908152604080832054600683528184205460049093529220805460019091015492939192909160ff8083169261010090041690565b6000836112c7576040805162461bcd60e51b815260206004820152601460248201527f496e76616c69642066696c65206469676573742e000000000000000000000000604482015290519081900360640190fd5b60ff831661131c576040805162461bcd60e51b815260206004820152601260248201527f496e76616c69642066696c65206d6574612e0000000000000000000000000000604482015290519081900360640190fd5b60ff8216611371576040805162461bcd60e51b815260206004820152601260248201527f496e76616c69642066696c652073697a652e0000000000000000000000000000604482015290519081900360640190fd5b611379612183565b60405180606001604052808681526020018560ff1681526020018460ff1681525090506113a4612244565b506040805160608101825233808252602080830185815260008486018181526001805481018082558352600280865292889020875181547fffffffffffffffffffffffff00000000000000000000000000000000000000001673ffffffffffffffffffffffffffffffffffffffff9091161781559351805185830155808601519385018054918a01517fffffffffffffffffffffffffffffffffffffffffffffffffffffffffffffff0090921660ff958616177fffffffffffffffffffffffffffffffffffffffffffffffffffffffffffff00ff166101009590921694909402179092555160039092019190915554845142815294519394929390927fc09d95cb1eb36fbaebe845f2559605fdc4651ef66398116a2e500fc1ffcd193392908290030190a35050600154949350505050565b60005473ffffffffffffffffffffffffffffffffffffffff1633146114fa57600080fd5b60005473ffffffffffffffffffffffffffffffffffffffff16ff5b600082815260086020526040812054821480610e6557505060009182526008602090815260408084209284526006909201905290205460ff1690565b60008181526008602090815260408083208054600182015460049092018054845181870281018701909552808552919592946060948493849391928301828280156115bb57602002820191906000526020600020905b8154815260200190600101908083116115a7575b5050506000998a5250506008602052604090972060028101546003909101549698959796909560ff80831696506101009092049091169350915050565b60008381526002602052604081205473ffffffffffffffffffffffffffffffffffffffff163314611670576040805162461bcd60e51b815260206004820152601060248201527f4e6f6465206f776e6572206f6e6c792e00000000000000000000000000000000604482015290519081900360640190fd5b73ffffffffffffffffffffffffffffffffffffffff83166116d8576040805162461bcd60e51b815260206004820152601960248201527f496e76616c6964206f70657261746f7220616464726573732e00000000000000604482015290519081900360640190fd5b600084815260026020908152604080832073ffffffffffffffffffffffffffffffffffffffff8716845260040190915290205460ff1615158215151461177557600084815260026020908152604080832073ffffffffffffffffffffffffffffffffffffffff87168452600401909152902080547fffffffffffffffffffffffffffffffffffffffffffffffffffffffffffffff00168315151790555b604080518315158152426020820152815173ffffffffffffffffffffffffffffffffffffffff86169287927fdbd776395bfa9d2e87eab342e7cbb5b8dc4ff17438d13b72ba7676cdd9af087e929081900390910190a35060019392505050565b60008381526008602052604081205480611836576040805162461bcd60e51b815260206004820152600d60248201527f496e76616c696420737465702e00000000000000000000000000000000000000604482015290519081900360640190fd5b60008181526002602052604090205473ffffffffffffffffffffffffffffffffffffffff1633146118ae576040805162461bcd60e51b815260206004820152601560248201527f53746570204e6f6465206f776e6572206f6e6c792e0000000000000000000000604482015290519081900360640190fd5b600085815260086020908152604080832087845260060190915290205460ff16151583151514611993576000858152600860209081526040808320878452600601909152902080547fffffffffffffffffffffffffffffffffffffffffffffffffffffffffffffff0016841580159190911790915561194457600085815260086020526040902060050180546001019055611993565b6000858152600860205260409020600501541561199357600085815260086020526040902060050180547fffffffffffffffffffffffffffffffffffffffffffffffffffffffffffffffff0190555b60408051841515815242602082015281518692339289927f450b279aa2a401d2a5ded470b4d3c61caa8c7a2a3d868b06a47588cdd01430ab929181900390910190a4506001949350505050565b6000818152600560205260408120541580611a135750600082815260046020526040902060010154610100900460ff1615155b611a64576040805162461bcd60e51b815260206004820152600d60248201527f496e76616c6964206974656d2e00000000000000000000000000000000000000604482015290519081900360640190fd5b60008281526006602052604090205415611aaf5760405162461bcd60e51b81526004018080602001828103825260258152602001806122c46025913960400191505060405180910390fd5b60008281526005602090815260408083205480845260029283905292200154610100900460ff16611b27576040805162461bcd60e51b815260206004820152601e60248201527f496e76616c696420737570706c79206974656d20726f6f74206e6f64652e0000604482015290519081900360640190fd5b60008181526002602052604090205473ffffffffffffffffffffffffffffffffffffffff16331480611b755750600081815260026020908152604080832033845260040190915290205460ff165b611bc6576040805162461bcd60e51b815260206004820152601960248201527f496e76616c6964206f776e6572202f206f70657261746f722e00000000000000604482015290519081900360640190fd5b600083815260046020908152604080832083815560010180547fffffffffffffffffffffffffffffffffffffffffffffffffffffffffffff000016905560068252808320839055600582528083209290925581514281529151839286927f514ef545b946ee2ee2883692d43bc2f9ae198afd8dbb6ddd23d4c74d9d109fff92918290030190a350600192915050565b600084815260026020819052604082200154610100900460ff16611cc0576040805162461bcd60e51b815260206004820152601460248201527f496e76616c696420737570706c79206e6f64652e000000000000000000000000604482015290519081900360640190fd5b60008581526002602052604090205473ffffffffffffffffffffffffffffffffffffffff16331480611d0e5750600085815260026020908152604080832033845260040190915290205460ff165b611d5f576040805162461bcd60e51b815260206004820152601960248201527f496e76616c6964206f776e6572202f206f70657261746f722e00000000000000604482015290519081900360640190fd5b83611db1576040805162461bcd60e51b815260206004820152601460248201527f496e76616c69642066696c65206469676573742e000000000000000000000000604482015290519081900360640190fd5b60ff8316611e06576040805162461bcd60e51b815260206004820152601260248201527f496e76616c69642066696c65206d6574612e0000000000000000000000000000604482015290519081900360640190fd5b60ff8216611e5b576040805162461bcd60e51b815260206004820152601260248201527f496e76616c69642066696c652073697a652e0000000000000000000000000000604482015290519081900360640190fd5b611e63612183565b506040805160608101825285815260ff808616602080840191825286831684860190815260038054600190810180835560009081526004855288812088518155955195909101805493518716610100027fffffffffffffffffffffffffffffffffffffffffffffffffffffffffffff00ff969097167fffffffffffffffffffffffffffffffffffffffffffffffffffffffffffffff00909416939093179490941694909417905582548252600581528482208a90558254825260068152848220919091559054835142815293519293899391927fa6a44f5279ae872eec4467b9d303d9e06a4b545686b13d6fed4542de2545da5c92918290030190a35050600354949350505050565b600090815260026020819052604090912080546001820154919092015473ffffffffffffffffffffffffffffffffffffffff90921692909160ff808216926101009092041690565b600081612008576040805162461bcd60e51b815260206004820152601360248201527f4e6f646520646f65736e27742065786973742e00000000000000000000000000604482015290519081900360640190fd5b6000828152600260205260409020805473ffffffffffffffffffffffffffffffffffffffff163314612081576040805162461bcd60e51b815260206004820152601360248201527f4d757374206265206e6f6465206f776e65722e00000000000000000000000000604482015290519081900360640190fd5b6003810154156120c25760405162461bcd60e51b815260040180806020018281038252602581526020018061229f6025913960400191505060405180910390fd5b60008381526002602081815260408084206001810185905592830180547fffffffffffffffffffffffffffffffffffffffffffffffffffffffffffff000016905582547fffffffffffffffffffffffff000000000000000000000000000000000000000016835560039092019290925580514281529051339286927fb263d55ff67da29c50d5a357f6059208558a8634af263997c15e66048140b80d929081900390910190a350600192915050565b60009081526006602052604090205490565b604080516060810182526000808252602082018190529181019190915290565b6040518060e0016040528060008152602001600081526020016121c4612183565b815260200160608152602001600081525090565b828054828255906000526020600020908101928215612213579160200282015b828111156122135782518255916020019190600101906121f8565b5061221f929150612281565b5090565b50805460008255906000526020600020908101906122419190612281565b50565b6040518060a00160405280600073ffffffffffffffffffffffffffffffffffffffff168152602001612274612183565b8152602001600081525090565b61229b91905b8082111561221f5760008155600101612287565b9056fe43616e6e6f742072656d6f7665206e6f64652077697468206163746976652073746570732e43616e6e6f742072656d6f7665206974656d2077697468206163746976652073746570732e43616e6e6f742072656d6f7665207374657020776974682061637469766520617070726f76616c732ea265627a7a723058205a49c991d952c9ef35036000fa2f5e12a1775d779e14e4f46536fc2eee4885b564736f6c634300050a0032",
  "source": "pragma solidity ^0.5.10;\r\n\r\n/**\r\n * @title A Supply Chain prototype contract implementation.\r\n * @author Brian Ludlam\r\n * @notice All Supply Chain relevant data is stored on-chain, with all data erroneous \r\n * to the system stored on IPFS. All information in the system, whether on-chain or on\r\n * IPFS, is impossible to change without a contract event logging the change, and all \r\n * versions of all data can be permanently referenced on IPFS.\r\n * A Supply Chain is defined in this system as a Directed Acyclic Graph of supply steps \r\n * that follow the production of something back to it's conception. A supply step always \r\n * references a single item in the system, and may extend one or more previous supply steps, \r\n * or precedents. A new step may only be added as a first step, or the last step of an existing \r\n * supply chain. Approval must be granted to create a new supply step, which extends a supply \r\n * step not owned directly.\r\n */\r\ncontract SupplyChain {\r\n\r\n    /**\r\n     * Struct IPFile - IPFS file signature data structure.\r\n     */\r\n    struct IPFile {\r\n        bytes32 digest;//file digest = file hash\r\n        uint8 meta;//file meta = file hashing algorithm type\r\n        uint8 size;//file size\r\n    }\r\n    \r\n    /**\r\n     * Struct SupplyNode - Supply Node data structure.\r\n     */\r\n    struct SupplyNode {\r\n        address owner;//owner / creator of Supply Node\r\n        IPFile nodeFile;//IPFS File for Supply Node\r\n        uint256 steps;//number of Supply Steps setup on this Supply Node\r\n        mapping(address => bool) operator;//Supply Node Operators\r\n    }\r\n    \r\n    /**\r\n     * Struct SupplyStep - Supply Step data structure.\r\n     */\r\n    struct SupplyStep {\r\n        uint256 node;//Origin Supply Node\r\n        uint256 item;//Referenced Supply Item\r\n        IPFile stepFile;//IPFS File for Supply Step\r\n        uint256[] precedents;//preceding Supply Steps to this Supply Step\r\n        uint256 approvals;//number of Supply Node access approvals for this Supply Step\r\n        mapping(uint256 => bool) approval;//mapping of Supply Node access approvals\r\n    }\r\n\r\n    //developer account with primary contract control\r\n    address payable private _developer;\r\n\r\n    //Supply Node Index\r\n    uint256 private _nodeIndex;\r\n   \r\n    //Supply Node index mapping to SupplyNode data structure\r\n    mapping(uint256 => SupplyNode) private _supplyNode;\r\n    \r\n    //Supply Item Index\r\n    uint256 _itemIndex;\r\n    \r\n    //Supply Item index mapping to IPFS file data structure\r\n    mapping(uint256 => IPFile) _itemFile;\r\n    \r\n    //Supply Item index mapping to origin Supply Node\r\n    mapping(uint256 => uint256) _itemNode;\r\n    \r\n    //Supply Item index mapping to index of it's last Supply Step (zero if none.)\r\n    mapping(uint256 => uint256) _itemStep;\r\n   \r\n    //Supply Step Index\r\n    uint256 private _stepIndex;\r\n   \r\n    //Supply Step mapping from index to SupplyStep data structure\r\n    mapping(uint256 => SupplyStep) private _supplyStep;\r\n\r\n    /**\r\n     * Event SupplyNodeAdded - Log each time a new Supply Node is added.\r\n     * @return nodeId = Supply Node ID\r\n     * @return owner = Supply Node owner\r\n     * @return timestamp = Timestamp when Supply Node was added.\r\n     */\r\n    event SupplyNodeAdded(\r\n        uint256 indexed nodeId, \r\n        address indexed owner, \r\n        uint256 timestamp\r\n    );\r\n    \r\n    /**\r\n     * Event SupplyNodeRemoved - Log each time a new Supply Node is removed.\r\n     * @return nodeId = Supply Node ID\r\n     * @return owner = Supply Node owner\r\n     * @return timestamp = Timestamp when Supply Node was removed.\r\n     */\r\n    event SupplyNodeRemoved(\r\n        uint256 indexed nodeId, \r\n        address indexed owner, \r\n        uint256 timestamp\r\n    );\r\n\r\n    /**\r\n     * Event NodeOpApproval - Log each change in new Supply Node operator approval status.\r\n     * @return nodeId = Supply Node ID\r\n     * @return operator = Supply Node operator\r\n     * @return approved = Supply Node operator approval status\r\n     * @return timestamp = Timestamp of Supply Node operator status change.\r\n     */\r\n    event NodeOpApproval(\r\n        uint256 indexed nodeId,\r\n        address indexed operator,\r\n        bool approved,\r\n        uint256 timestamp\r\n    );\r\n\r\n    /**\r\n     * Event SupplyItemAdded - Log each time a new Supply Item is added.\r\n     * @return itemId = Supply Item ID that was added.\r\n     * @return nodeId = Supply Node ID that Supply Item was added to.\r\n     * @return timestamp = Timestamp when Supply Item was added.\r\n     */\r\n    event SupplyItemAdded(\r\n        uint256 indexed itemId, \r\n        uint256 indexed nodeId, \r\n        uint256 timestamp\r\n    );\r\n    \r\n    /**\r\n     * Event SupplyItemRemoved - Log each time a new Supply Item is removed.\r\n     * @return itemId = Supply Item ID that was removed.\r\n     * @return nodeId = Supply Node ID that Supply Item was removed from.\r\n     * @return timestamp = Timestamp when Supply Item was removed.\r\n     */\r\n    event SupplyItemRemoved(\r\n        uint256 indexed itemId, \r\n        uint256 indexed nodeId, \r\n        uint256 timestamp\r\n    );\r\n    \r\n    /**\r\n     * Event SupplyStepAdded - Log each time a new Supply Step is added.\r\n     * @return stepId = Supply Step ID that was added.\r\n     * @return nodeId = Supply Node ID that Supply Step was added to.\r\n     * @return itemId = Supply Item ID that Supply Step references.\r\n     * @return timestamp = Timestamp when Supply Step was added.\r\n     */\r\n    event SupplyStepAdded(\r\n        uint256 indexed stepId, \r\n        uint256 indexed nodeId, \r\n        uint256 indexed itemId,\r\n        uint256 timestamp\r\n    );\r\n    \r\n    /**\r\n     * Event SupplyStepRemoved - Log each time a new Supply Step is removed.\r\n     * @return stepId = Supply Step ID that was added.\r\n     * @return nodeId = Supply Node ID that Supply Step was added to.\r\n     * @return itemId = Supply Item ID that Supply Step references.\r\n     * @return timestamp = Timestamp when Supply Step was removed.\r\n     */\r\n    event SupplyStepRemoved(\r\n        uint256 indexed stepId, \r\n        uint256 indexed nodeId, \r\n        uint256 indexed itemId,\r\n        uint256 timestamp\r\n    );\r\n\r\n    /**\r\n     * Event SupplyStepRequest - Log Supply Step access requested by Supply Node.\r\n     * @return stepId = Supply Step ID being requested for access.\r\n     * @return owner = Owner of Supply Node requesting access. \r\n     * @return nodeId = Supply Node ID requesting access.\r\n     * @return timestamp = Timestamp when Supply Step access was requested.\r\n     */\r\n    event SupplyStepRequest(\r\n        uint256 indexed stepId, \r\n        address indexed owner,\r\n        uint256 indexed nodeId,\r\n        uint256 timestamp\r\n    );\r\n\r\n    /**\r\n     * Event SupplyNodeApproval - Log Supply Step access approval status change for Supply Node.\r\n     * @return stepId = Supply Step ID approving access to Supply Node.\r\n     * @return owner = Owner of Supply Node receiving approval for access. \r\n     * @return nodeId = Supply Node ID receiving approval for access. \r\n     * @return approved = Supply Node approval status\r\n     * @return timestamp = Timestamp when Supply Node access approval status changed.\r\n     */\r\n    event SupplyNodeApproval(\r\n        uint256 indexed stepId, \r\n        address indexed owner,\r\n        uint256 indexed nodeId, \r\n        bool approved,\r\n        uint256 timestamp\r\n    );\r\n\r\n    //Contract constructor sets developer account control and initializes indexes.\r\n    constructor() public { \r\n        _developer = msg.sender;\r\n        _nodeIndex = _stepIndex = _itemIndex = 0;\r\n    }\r\n    \r\n    /**\r\n     * Transaction addSupplyNode - Add Supply Node with IPFS file data.\r\n     * @param fileDigest = IPFS file multihash - hash data part\r\n     * @param fileMeta = IPFS file multihash - hash algorythm part\r\n     * @param fileSize = IPFS file multihash - file size part\r\n     * @return uint256 new Supply Node index value\r\n     * @notice IPFS File multihash parts must be relatively valid.\r\n     */\r\n    function addSupplyNode (\r\n        bytes32 fileDigest,\r\n        uint8 fileMeta,\r\n        uint8 fileSize\r\n    ) public returns(uint256) {\r\n        //Check\r\n        require (fileDigest != 0x0, \"Invalid file digest.\");\r\n        require (fileMeta != 0, \"Invalid file meta.\");\r\n        require (fileSize != 0, \"Invalid file size.\");\r\n        \r\n        //Effect\r\n        IPFile memory nodeFile = IPFile(fileDigest, fileMeta, fileSize);\r\n        SupplyNode memory newNode = SupplyNode(msg.sender, nodeFile, 0);\r\n        _supplyNode[++_nodeIndex] = newNode;\r\n        \r\n        //Reflect\r\n        emit SupplyNodeAdded (_nodeIndex, msg.sender, now);\r\n        return _nodeIndex;\r\n    }\r\n    \r\n    /**\r\n     * Transaction removeSupplyNode - Remove Supply Node by ID.\r\n     * @param nodeId = Valid ID of a Supply Node\r\n     * @return boolean transaction success\r\n     * @notice must be owner of Supply Node, Supply Node must exist and be inactive.\r\n     */\r\n    function removeSupplyNode (uint256 nodeId) public returns(bool) {\r\n        //Check\r\n        require (nodeId != 0, \"Node doesn't exist.\");\r\n        SupplyNode storage node = _supplyNode[nodeId];\r\n        require (node.owner == msg.sender, \"Must be node owner.\");\r\n        require (node.steps == 0, \"Cannot remove node with active steps.\");\r\n        \r\n        //Effect\r\n        delete _supplyNode[nodeId].nodeFile;\r\n        delete _supplyNode[nodeId];\r\n        \r\n        //Reflect\r\n        emit SupplyNodeRemoved (nodeId, msg.sender, now);\r\n        return true;\r\n    }\r\n\r\n    /**\r\n     * Transaction approveNodeOp - Set approval for Supply Node operators by account address.\r\n     * @param nodeId = Valid ID of a Supply Node\r\n     * @return boolean transaction success\r\n     * @notice must be owner of Supply Node.\r\n     */\r\n    function approveNodeOp (\r\n        uint256 nodeId,\r\n        address operator,\r\n        bool approved\r\n    ) public returns(bool) {\r\n        //Check\r\n        require (_supplyNode[nodeId].owner == msg.sender, \"Node owner only.\");\r\n        require (operator != address(0), \"Invalid operator address.\");\r\n        \r\n        //Effect\r\n        if (_supplyNode[nodeId].operator[operator] != approved) {\r\n            _supplyNode[nodeId].operator[operator] = approved;\r\n        }\r\n        \r\n        //Reflect\r\n        emit NodeOpApproval (nodeId, operator, approved, now);\r\n        return true;\r\n    }\r\n\r\n    /**\r\n     * Transaction addSupplyItem - Add Supply Item to Supply Node as IPFS file.\r\n     * @param nodeId = Origin Supply Node\r\n     * @param fileDigest = IPFS file multihash - hash data part\r\n     * @param fileMeta = IPFS file multihash - hash algorythm part\r\n     * @param fileSize = IPFS file multihash - file size part\r\n     * @return uint256 new Supply Item index value\r\n     * @notice Must be Supply Node owner or operator, IPFS File multihash parts \r\n     * must be relatively valid.\r\n     */\r\n    function addSupplyItem (\r\n        uint256 nodeId,\r\n        bytes32 fileDigest,\r\n        uint8 fileMeta,\r\n        uint8 fileSize\r\n    ) public returns(uint256) {\r\n        //Check\r\n        require (_supplyNode[nodeId].nodeFile.size != 0, \"Invalid supply node.\");\r\n        require (_supplyNode[nodeId].owner == msg.sender ||\r\n                 _supplyNode[nodeId].operator[msg.sender], \"Invalid owner / operator.\");\r\n        require (fileDigest != 0x0, \"Invalid file digest.\");\r\n        require (fileMeta != 0, \"Invalid file meta.\");\r\n        require (fileSize != 0, \"Invalid file size.\");\r\n        \r\n        //Effect\r\n        IPFile memory itemFile = IPFile(fileDigest, fileMeta, fileSize);\r\n        _itemFile[++_itemIndex] = itemFile;\r\n        _itemNode[_itemIndex] = nodeId;\r\n        _itemStep[_itemIndex] = 0;//no steps\r\n        \r\n        //Reflect\r\n        emit SupplyItemAdded (_itemIndex, nodeId, now);\r\n        return _itemIndex;\r\n    }\r\n    \r\n    /**\r\n     * Transaction removeSupplyItem - Remove Supply Item by ID.\r\n     * @param itemId = Valid Supply Item ID\r\n     * @return boolean transaction success\r\n     * @notice Must be Supply Node owner or operator, Item may not have active \r\n     * Supply Steps.\r\n     */\r\n    function removeSupplyItem (uint256 itemId) public returns(bool) {\r\n        //Check\r\n        require (_itemNode[itemId] == 0 || _itemFile[itemId].size != 0, \"Invalid item.\");\r\n        require (_itemStep[itemId] == 0, \"Cannot remove item with active steps.\");\r\n        uint256 nodeId = _itemNode[itemId];\r\n        require (_supplyNode[nodeId].nodeFile.size != 0, \"Invalid supply item root node.\");\r\n        require (_supplyNode[nodeId].owner == msg.sender ||\r\n                 _supplyNode[nodeId].operator[msg.sender], \"Invalid owner / operator.\");\r\n        \r\n        //Effect\r\n        delete _itemFile[itemId];\r\n        delete _itemStep[itemId];\r\n        delete _itemNode[itemId];\r\n        \r\n        //Reflect\r\n        emit SupplyItemRemoved (itemId, nodeId, now);\r\n        return true;\r\n    }\r\n    \r\n    /**\r\n     * Transaction addSupplyStep - Add Supply Step for Supply Item at Supply Node.\r\n     * @param nodeId = Supply Node to end Supply Step to.\r\n     * @param itemId = Supply Item this Supply Step references.\r\n     * @param precedents = Array of Supply Step IDs, which this Supply Step extends.\r\n     * @param fileDigest = IPFS file multihash - hash data part\r\n     * @param fileMeta = IPFS file multihash - hash algorythm part\r\n     * @param fileSize = IPFS file multihash - file size part\r\n     * @return uint256 new supply step index value\r\n     * @notice Must be valid Supply Step (see validateSupplyStep(), IPFS File \r\n     * multihash parts must be relatively valid.\r\n     */\r\n    function addSupplyStep (\r\n        uint256 nodeId, \r\n        uint256 itemId,\r\n        uint256[] memory precedents,\r\n        bytes32 fileDigest,\r\n        uint8 fileMeta,\r\n        uint8 fileSize\r\n    ) public returns(uint256) {\r\n        //Check\r\n        require (fileDigest != 0x0, \"Invalid file digest.\");\r\n        require (fileMeta != 0, \"Invalid file meta.\");\r\n        require (fileSize != 0, \"Invalid file size.\");\r\n        require (validateSupplyStep(nodeId, itemId, precedents), \"Invalid Supply Step.\");\r\n        \r\n        //Effect\r\n        IPFile memory stepFile = IPFile(fileDigest, fileMeta, fileSize);\r\n        SupplyStep memory newStep = SupplyStep(nodeId, itemId, stepFile, precedents, 0);\r\n        _supplyStep[++_stepIndex] = newStep;\r\n        _itemStep[itemId] = _stepIndex;\r\n        _supplyNode[nodeId].steps += 1;\r\n        \r\n        //Reflect\r\n        emit SupplyStepAdded (_stepIndex, nodeId, itemId, now);\r\n        return _stepIndex;\r\n    }\r\n    \r\n    /**\r\n     * Transaction removeSupplyStep - Remove Supply Step by ID.\r\n     * @param stepId = Valid Supply Step ID\r\n     * @return boolean transaction success\r\n     * @notice Must be Supply Node owner or operator, must be Supply Items's \r\n     * last Supply Step, must not have any active Supply Node approvals.\r\n     */\r\n    function removeSupplyStep (uint256 stepId) public returns(bool) {\r\n        //Check\r\n        SupplyStep storage step = _supplyStep[stepId];\r\n        uint256 nodeId = step.node;\r\n        uint256 itemId = step.item;\r\n        require (nodeId != 0, \"Invalid step.\");\r\n        require (_supplyNode[nodeId].owner == msg.sender ||\r\n                 _supplyNode[nodeId].operator[msg.sender], \"Invalid owner / operator.\");\r\n        require (_itemStep[itemId] == stepId, \"Only item's last step removable.\");\r\n        require (step.approvals == 0, \"Cannot remove step with active approvals.\");\r\n        \r\n        //Effect\r\n        if (step.precedents.length > 0) {\r\n            //reset itemStep to previous itemStep if exists in precedents.\r\n            uint8 index = 0;\r\n            while (index < step.precedents.length) {\r\n                if (_supplyStep[step.precedents[index]].item == itemId) {\r\n                    _itemStep[itemId] = step.precedents[index];\r\n                    break;//can only be one\r\n                } else index++;\r\n            }\r\n            if (index == step.precedents.length) _itemStep[itemId] = 0;\r\n        }else _itemStep[itemId] = 0;\r\n        if (_supplyNode[nodeId].steps > 0) _supplyNode[nodeId].steps -= 1;\r\n        delete _supplyStep[stepId].stepFile;\r\n        delete _supplyStep[stepId];\r\n        \r\n        //Reflect\r\n        emit SupplyStepRemoved (stepId, nodeId, itemId, now);\r\n        return true;\r\n    }\r\n\r\n    /**\r\n     * Transaction requestSupplyStep - Request for Supply Node access to existing Supply Step.\r\n     * @param stepId = Valid ID of a Supply Step beign requested.\r\n     * @param nodeId = Valid ID of a Supply Node doing the requesting.\r\n     * @return boolean transaction success\r\n     * @notice Must be owner of Supply Node doing the request. Event-only effect, \r\n     * address of Supply Step's Supply Node owner included for event trigger.\r\n     */\r\n    function requestSupplyStep (\r\n        uint256 stepId,\r\n        uint256 nodeId\r\n    ) public returns(bool) {\r\n        //Check\r\n        require (_supplyStep[stepId].node != 0, \"Invalid step.\");\r\n        require (_supplyNode[nodeId].owner == msg.sender, \"Node owner only.\");\r\n        \r\n        //Reflect\r\n        emit SupplyStepRequest (\r\n            stepId, \r\n            _supplyNode[_supplyStep[stepId].node].owner, \r\n            nodeId, \r\n            now\r\n        );\r\n        return true;\r\n    }\r\n\r\n    /**\r\n     * Transaction approveSupplyNode - Set approval for Supply Node access to existing \r\n     * Supply Step.\r\n     * @param stepId = Valid ID of a Supply Step approving.\r\n     * @param nodeId = Valid ID of a Supply Node being approved.\r\n     * @param approved = State of approval.\r\n     * @return boolean transaction success\r\n     * @notice Must be owner of Supply Node owning Supply Step doing the approval. \r\n     * .\r\n     */\r\n    function approveSupplyNode (\r\n        uint256 stepId,\r\n        uint256 nodeId,\r\n        bool approved\r\n    ) public returns(bool) {\r\n        //Check\r\n        uint256 stepNode = _supplyStep[stepId].node;\r\n        require (stepNode != 0, \"Invalid step.\");\r\n        require (_supplyNode[stepNode].owner == msg.sender, \"Step Node owner only.\");\r\n        \r\n        //Effect\r\n        if (_supplyStep[stepId].approval[nodeId] != approved) {\r\n            _supplyStep[stepId].approval[nodeId] = approved;\r\n            if (approved) _supplyStep[stepId].approvals += 1;\r\n            else if (_supplyStep[stepId].approvals > 0) _supplyStep[stepId].approvals -= 1;\r\n        }\r\n        \r\n        //Reflect\r\n        emit SupplyNodeApproval (stepId, msg.sender, nodeId, approved, now);\r\n        return true;\r\n    }\r\n\r\n    /**\r\n     * View supplyNode - Get Supply Node data by ID.\r\n     * @param nodeId = Valid ID of a Supply Node.\r\n     * @return owner = Supply Node owner address.\r\n     * @return fileDigest = Node File - IPFS file multihash - hash data part\r\n     * @return fileMeta = Node File - IPFS file multihash - hash algorythm part\r\n     * @return fileSize = Node File - IPFS file multihash - file size part\r\n     * \r\n     */\r\n    function supplyNode(uint256 nodeId) external view \r\n        returns (address owner, bytes32 fileDigest, uint8 fileMeta, uint8 fileSize ) {\r\n        owner = _supplyNode[nodeId].owner;\r\n        fileDigest = _supplyNode[nodeId].nodeFile.digest;\r\n        fileMeta = _supplyNode[nodeId].nodeFile.meta;\r\n        fileSize = _supplyNode[nodeId].nodeFile.size;\r\n    }\r\n\r\n    /**\r\n     * View supplyItem - Get Supply Item data by ID.\r\n     * @param itemId = Valid ID of a Supply Item.\r\n     * @return nodeId =ID of Supply Item's origin Supply Node.\r\n     * @return lastStep = Supply Item's last Supply Step ID. (zero if none)\r\n     * @return fileDigest = Item File - IPFS file multihash - hash data part\r\n     * @return fileMeta = Item File - IPFS file multihash - hash algorythm part\r\n     * @return fileSize = Item File - IPFS file multihash - file size part\r\n     * \r\n     */\r\n    function supplyItem(uint256 itemId) external view \r\n        returns (uint256 nodeId, uint256 lastStep, bytes32 fileDigest, uint8 fileMeta, uint8 fileSize ) {\r\n        nodeId = _itemNode[itemId];\r\n        lastStep = _itemStep[itemId];\r\n        fileDigest = _itemFile[itemId].digest;\r\n        fileMeta = _itemFile[itemId].meta;\r\n        fileSize = _itemFile[itemId].size;\r\n    }\r\n\r\n    /**\r\n     * View supplyStep - Get Supply Step data by ID.\r\n     * @param stepId = Valid ID of a Supply Step.\r\n     * @return nodeId = ID of Supply Step's Supply Item's origin Supply Node.\r\n     * @return itemId = Supply Item referenced by Supply Step.\r\n     * @return precedents = Array of Supply Step IDs, which this Supply Step extends.\r\n     * @return fileDigest = Step File - IPFS file multihash - hash data part\r\n     * @return fileMeta = Step File - IPFS file multihash - hash algorythm part\r\n     * @return fileSize = Step File - IPFS file multihash - file size part\r\n     * \r\n     */\r\n    function supplyStep(uint256 stepId) external view \r\n        returns (\r\n            uint256 nodeId, \r\n            uint256 itemId, \r\n            uint256[] memory precedents,\r\n            bytes32 fileDigest, \r\n            uint8 fileMeta, \r\n            uint8 fileSize \r\n        ) {\r\n        nodeId = _supplyStep[stepId].node;\r\n        itemId = _supplyStep[stepId].item;\r\n        precedents = _supplyStep[stepId].precedents;\r\n        fileDigest = _supplyStep[stepId].stepFile.digest;\r\n        fileMeta = _supplyStep[stepId].stepFile.meta;\r\n        fileSize = _supplyStep[stepId].stepFile.size;\r\n    }\r\n\r\n    /**\r\n     * View validateSupplyStep - Validates a potential Supply Step entry to see if it's valid.\r\n     * @param nodeId = ID of Supply Supply Node to create Supply Step on.\r\n     * @param itemId = Supply Item referenced by Supply Step.\r\n     * @param precedents = Array of Supply Step IDs, which this Supply Step extends.\r\n     * @return boolean = valid or not\r\n     * @notice this check always occurs before adSupplyStep transaction, however can be called\r\n     * independently first to check vaidiity, to avoid transaction fail.\r\n     * Checks: Node is valid, sender is owner or operator of Supply Node adding the step, \r\n     * item referenced is valid, all included precedents are themselves last steps of there \r\n     * respective items, the nodeId adding them has approval to extend those steps, and adding \r\n     * a step that is not the first step of a given item, must include that item's last step \r\n     * as a precedent, given approval to do so.\r\n     * \r\n     */\r\n    function validateSupplyStep (\r\n        uint256 nodeId, \r\n        uint256 itemId,\r\n        uint256[] memory precedents\r\n    ) public view returns(bool) {\r\n        if (_supplyNode[nodeId].nodeFile.size == 0) return false;\r\n        if (_supplyNode[nodeId].owner != msg.sender &&\r\n             !_supplyNode[nodeId].operator[msg.sender]) return false;\r\n        if (_itemFile[itemId].size == 0) return false;\r\n        uint8 itemRepeatStep = 0;\r\n        if (precedents.length > 0) {\r\n            uint8 index = 0;\r\n            while (index < precedents.length) {\r\n                if (_supplyStep[precedents[index]].item == 0 || \r\n                    !(_supplyStep[precedents[index]].node == nodeId || \r\n                        _supplyStep[precedents[index]].approval[nodeId]) ||\r\n                    _itemStep[_supplyStep[precedents[index]].item] != precedents[index]) {\r\n                    return false;\r\n                } \r\n                if (_supplyStep[precedents[index]].item == itemId) itemRepeatStep++;\r\n                index++;\r\n            }\r\n        }\r\n        if (itemRepeatStep > 1 || (itemRepeatStep == 0 && _itemStep[itemId] != 0)) return false;\r\n        return true;\r\n    }\r\n\r\n    /**\r\n     * View isNodeOp - Check address as Node operator.\r\n     * @param nodeId = Valid ID of a Supply Node.\r\n     * @param operator = account address.\r\n     * @return boolean = is node operator\r\n     * @notice Supply Node owner only\r\n     */\r\n    function isNodeOp(uint256 nodeId, address operator) external view returns (bool) {\r\n        require (_supplyNode[nodeId].owner == msg.sender);\r\n        return _supplyNode[nodeId].operator[operator];\r\n    }\r\n\r\n    /**\r\n     * View itemLastStep - Get last Supply Step of given Supply Item ID\r\n     * @param itemId = Valid ID of a Supply Item.\r\n     * @return stepId = Supply Step ID\r\n     */\r\n    function itemLastStep(uint256 itemId) public view returns (uint256 stepId) {\r\n       stepId = _itemStep[itemId];\r\n    }\r\n    \r\n    /**\r\n     * View stepPrecedents - Get precedents of given Supply Step ID\r\n     * @param stepId = Valid ID of a Supply Step.\r\n     * @return precedents = Array of Supply Step IDs\r\n     */\r\n    function stepPrecedents(uint256 stepId) public view returns (uint256[] memory precedents) {\r\n       precedents = _supplyStep[stepId].precedents;\r\n    }\r\n\r\n    /**\r\n     * View stepNodeApproved - Get Supply Step approval status for Supply Node\r\n     * @param stepId = Valid ID of a Supply Step.\r\n     * @param nodeId = Valid ID of a Supply Node.\r\n     * @return approved = Boolean approval status\r\n     */\r\n    function stepNodeApproved(uint256 stepId, uint256 nodeId) external view returns (bool approved) {\r\n        approved = (_supplyStep[stepId].node == nodeId || _supplyStep[stepId].approval[nodeId]);\r\n    }\r\n    \r\n    //developer only destroy method\r\n    function destroy() external {\r\n       require (_developer == msg.sender);\r\n       selfdestruct(_developer);\r\n    }\r\n    \r\n    //Return to sender, any abstract transfers\r\n    function () external payable { msg.sender.transfer(msg.value); }\r\n}",
  "sourcePath": "C:/Users/Brian/workspace/web3/supply-chain/contracts/SupplyChain.sol",
  "compiler": {
    "name": "solc",
    "version": "0.5.10+commit.5a6ea5b1.Emscripten.clang"
  },
  "schemaVersion": "3.0.9",
  "updatedAt": "2019-07-19T19:11:13.288Z",
  "devdoc": {
    "author": "Brian Ludlam\r",
    "methods": {
      "addSupplyItem(uint256,bytes32,uint8,uint8)": {
        "params": {
          "fileDigest": "= IPFS file multihash - hash data part\r",
          "fileMeta": "= IPFS file multihash - hash algorythm part\r",
          "fileSize": "= IPFS file multihash - file size part\r",
          "nodeId": "= Origin Supply Node\r"
        },
        "return": "uint256 new Supply Item index value\r"
      },
      "addSupplyNode(bytes32,uint8,uint8)": {
        "params": {
          "fileDigest": "= IPFS file multihash - hash data part\r",
          "fileMeta": "= IPFS file multihash - hash algorythm part\r",
          "fileSize": "= IPFS file multihash - file size part\r"
        },
        "return": "uint256 new Supply Node index value\r"
      },
      "addSupplyStep(uint256,uint256,uint256[],bytes32,uint8,uint8)": {
        "params": {
          "fileDigest": "= IPFS file multihash - hash data part\r",
          "fileMeta": "= IPFS file multihash - hash algorythm part\r",
          "fileSize": "= IPFS file multihash - file size part\r",
          "itemId": "= Supply Item this Supply Step references.\r",
          "nodeId": "= Supply Node to end Supply Step to.\r",
          "precedents": "= Array of Supply Step IDs, which this Supply Step extends.\r"
        },
        "return": "uint256 new supply step index value\r"
      },
      "approveNodeOp(uint256,address,bool)": {
        "params": {
          "nodeId": "= Valid ID of a Supply Node\r"
        },
        "return": "boolean transaction success\r"
      },
      "approveSupplyNode(uint256,uint256,bool)": {
        "params": {
          "approved": "= State of approval.\r",
          "nodeId": "= Valid ID of a Supply Node being approved.\r",
          "stepId": "= Valid ID of a Supply Step approving.\r"
        },
        "return": "boolean transaction success\r"
      },
      "isNodeOp(uint256,address)": {
        "params": {
          "nodeId": "= Valid ID of a Supply Node.\r",
          "operator": "= account address.\r"
        },
        "return": "boolean = is node operator\r"
      },
      "itemLastStep(uint256)": {
        "params": {
          "itemId": "= Valid ID of a Supply Item.\r"
        },
        "return": "stepId = Supply Step ID\r"
      },
      "removeSupplyItem(uint256)": {
        "params": {
          "itemId": "= Valid Supply Item ID\r"
        },
        "return": "boolean transaction success\r"
      },
      "removeSupplyNode(uint256)": {
        "params": {
          "nodeId": "= Valid ID of a Supply Node\r"
        },
        "return": "boolean transaction success\r"
      },
      "removeSupplyStep(uint256)": {
        "params": {
          "stepId": "= Valid Supply Step ID\r"
        },
        "return": "boolean transaction success\r"
      },
      "requestSupplyStep(uint256,uint256)": {
        "params": {
          "nodeId": "= Valid ID of a Supply Node doing the requesting.\r",
          "stepId": "= Valid ID of a Supply Step beign requested.\r"
        },
        "return": "boolean transaction success\r"
      },
      "stepNodeApproved(uint256,uint256)": {
        "params": {
          "nodeId": "= Valid ID of a Supply Node.\r",
          "stepId": "= Valid ID of a Supply Step.\r"
        },
        "return": "approved = Boolean approval status\r"
      },
      "stepPrecedents(uint256)": {
        "params": {
          "stepId": "= Valid ID of a Supply Step.\r"
        },
        "return": "precedents = Array of Supply Step IDs\r"
      },
      "supplyItem(uint256)": {
        "params": {
          "itemId": "= Valid ID of a Supply Item.\r"
        },
        "return": "nodeId =ID of Supply Item's origin Supply Node.\rlastStep = Supply Item's last Supply Step ID. (zero if none)\rfileDigest = Item File - IPFS file multihash - hash data part\rfileMeta = Item File - IPFS file multihash - hash algorythm part\rfileSize = Item File - IPFS file multihash - file size part\r \r"
      },
      "supplyNode(uint256)": {
        "params": {
          "nodeId": "= Valid ID of a Supply Node.\r"
        },
        "return": "owner = Supply Node owner address.\rfileDigest = Node File - IPFS file multihash - hash data part\rfileMeta = Node File - IPFS file multihash - hash algorythm part\rfileSize = Node File - IPFS file multihash - file size part\r \r"
      },
      "supplyStep(uint256)": {
        "params": {
          "stepId": "= Valid ID of a Supply Step.\r"
        },
        "return": "nodeId = ID of Supply Step's Supply Item's origin Supply Node.\ritemId = Supply Item referenced by Supply Step.\rprecedents = Array of Supply Step IDs, which this Supply Step extends.\rfileDigest = Step File - IPFS file multihash - hash data part\rfileMeta = Step File - IPFS file multihash - hash algorythm part\rfileSize = Step File - IPFS file multihash - file size part\r \r"
      },
      "validateSupplyStep(uint256,uint256,uint256[])": {
        "params": {
          "itemId": "= Supply Item referenced by Supply Step.\r",
          "nodeId": "= ID of Supply Supply Node to create Supply Step on.\r",
          "precedents": "= Array of Supply Step IDs, which this Supply Step extends.\r"
        },
        "return": "boolean = valid or not\r"
      }
    },
    "title": "A Supply Chain prototype contract implementation.\r"
  },
  "userdoc": {
    "methods": {
      "addSupplyItem(uint256,bytes32,uint8,uint8)": {
        "notice": "Transaction addSupplyItem - Add Supply Item to Supply Node as IPFS file.\rMust be Supply Node owner or operator, IPFS File multihash parts \r must be relatively valid.\r"
      },
      "addSupplyNode(bytes32,uint8,uint8)": {
        "notice": "Transaction addSupplyNode - Add Supply Node with IPFS file data.\rIPFS File multihash parts must be relatively valid.\r"
      },
      "addSupplyStep(uint256,uint256,uint256[],bytes32,uint8,uint8)": {
        "notice": "Transaction addSupplyStep - Add Supply Step for Supply Item at Supply Node.\rMust be valid Supply Step (see validateSupplyStep(), IPFS File \r multihash parts must be relatively valid.\r"
      },
      "approveNodeOp(uint256,address,bool)": {
        "notice": "Transaction approveNodeOp - Set approval for Supply Node operators by account address.\rmust be owner of Supply Node.\r"
      },
      "approveSupplyNode(uint256,uint256,bool)": {
        "notice": "Transaction approveSupplyNode - Set approval for Supply Node access to existing \r Supply Step.\rMust be owner of Supply Node owning Supply Step doing the approval. \r .\r"
      },
      "isNodeOp(uint256,address)": {
        "notice": "View isNodeOp - Check address as Node operator.\rSupply Node owner only\r"
      },
      "itemLastStep(uint256)": {
        "notice": "View itemLastStep - Get last Supply Step of given Supply Item ID\r"
      },
      "removeSupplyItem(uint256)": {
        "notice": "Transaction removeSupplyItem - Remove Supply Item by ID.\rMust be Supply Node owner or operator, Item may not have active \r Supply Steps.\r"
      },
      "removeSupplyNode(uint256)": {
        "notice": "Transaction removeSupplyNode - Remove Supply Node by ID.\rmust be owner of Supply Node, Supply Node must exist and be inactive.\r"
      },
      "removeSupplyStep(uint256)": {
        "notice": "Transaction removeSupplyStep - Remove Supply Step by ID.\rMust be Supply Node owner or operator, must be Supply Items's \r last Supply Step, must not have any active Supply Node approvals.\r"
      },
      "requestSupplyStep(uint256,uint256)": {
        "notice": "Transaction requestSupplyStep - Request for Supply Node access to existing Supply Step.\rMust be owner of Supply Node doing the request. Event-only effect, \r address of Supply Step's Supply Node owner included for event trigger.\r"
      },
      "stepNodeApproved(uint256,uint256)": {
        "notice": "View stepNodeApproved - Get Supply Step approval status for Supply Node\r"
      },
      "stepPrecedents(uint256)": {
        "notice": "View stepPrecedents - Get precedents of given Supply Step ID\r"
      },
      "supplyItem(uint256)": {
        "notice": "View supplyItem - Get Supply Item data by ID.\r"
      },
      "supplyNode(uint256)": {
        "notice": "View supplyNode - Get Supply Node data by ID.\r"
      },
      "supplyStep(uint256)": {
        "notice": "View supplyStep - Get Supply Step data by ID.\r"
      },
      "validateSupplyStep(uint256,uint256,uint256[])": {
        "notice": "View validateSupplyStep - Validates a potential Supply Step entry to see if it's valid.\rthis check always occurs before adSupplyStep transaction, however can be called\r independently first to check vaidiity, to avoid transaction fail.\r Checks: Node is valid, sender is owner or operator of Supply Node adding the step, \r item referenced is valid, all included precedents are themselves last steps of there \r respective items, the nodeId adding them has approval to extend those steps, and adding \r a step that is not the first step of a given item, must include that item's last step \r as a precedent, given approval to do so.\r \r"
      }
    },
    "notice": "All Supply Chain relevant data is stored on-chain, with all data erroneous \r to the system stored on IPFS. All information in the system, whether on-chain or on\r IPFS, is impossible to change without a contract event logging the change, and all \r versions of all data can be permanently referenced on IPFS.\r A Supply Chain is defined in this system as a Directed Acyclic Graph of supply steps \r that follow the production of something back to it's conception. A supply step always \r references a single item in the system, and may extend one or more previous supply steps, \r or precedents. A new step may only be added as a first step, or the last step of an existing \r supply chain. Approval must be granted to create a new supply step, which extends a supply \r step not owned directly.\r"
  }
}